{
  "_format": "hh-sol-artifact-1",
  "contractName": "GamesphereNFT",
  "sourceName": "contracts/GamesphereNFT.sol",
  "abi": [
    {
      "inputs": [],
      "stateMutability": "nonpayable",
      "type": "constructor"
    },
    {
      "anonymous": false,
      "inputs": [
        {
          "indexed": true,
          "internalType": "address",
          "name": "owner",
          "type": "address"
        },
        {
          "indexed": true,
          "internalType": "address",
          "name": "approved",
          "type": "address"
        },
        {
          "indexed": true,
          "internalType": "uint256",
          "name": "tokenId",
          "type": "uint256"
        }
      ],
      "name": "Approval",
      "type": "event"
    },
    {
      "anonymous": false,
      "inputs": [
        {
          "indexed": true,
          "internalType": "address",
          "name": "owner",
          "type": "address"
        },
        {
          "indexed": true,
          "internalType": "address",
          "name": "operator",
          "type": "address"
        },
        {
          "indexed": false,
          "internalType": "bool",
          "name": "approved",
          "type": "bool"
        }
      ],
      "name": "ApprovalForAll",
      "type": "event"
    },
    {
      "anonymous": false,
      "inputs": [
        {
          "indexed": true,
          "internalType": "address",
          "name": "previousOwner",
          "type": "address"
        },
        {
          "indexed": true,
          "internalType": "address",
          "name": "newOwner",
          "type": "address"
        }
      ],
      "name": "OwnershipTransferred",
      "type": "event"
    },
    {
      "anonymous": false,
      "inputs": [
        {
          "indexed": true,
          "internalType": "address",
          "name": "from",
          "type": "address"
        },
        {
          "indexed": true,
          "internalType": "address",
          "name": "to",
          "type": "address"
        },
        {
          "indexed": true,
          "internalType": "uint256",
          "name": "tokenId",
          "type": "uint256"
        }
      ],
      "name": "Transfer",
      "type": "event"
    },
    {
      "inputs": [
        {
          "internalType": "address",
          "name": "to",
          "type": "address"
        },
        {
          "internalType": "uint256",
          "name": "tokenId",
          "type": "uint256"
        }
      ],
      "name": "approve",
      "outputs": [],
      "stateMutability": "nonpayable",
      "type": "function"
    },
    {
      "inputs": [
        {
          "internalType": "address",
          "name": "owner",
          "type": "address"
        }
      ],
      "name": "balanceOf",
      "outputs": [
        {
          "internalType": "uint256",
          "name": "",
          "type": "uint256"
        }
      ],
      "stateMutability": "view",
      "type": "function"
    },
    {
      "inputs": [
        {
          "internalType": "uint256",
          "name": "_tokenId",
          "type": "uint256"
        }
      ],
      "name": "buyPowerup",
      "outputs": [],
      "stateMutability": "payable",
      "type": "function"
    },
    {
      "inputs": [
        {
          "internalType": "string",
          "name": "uri",
          "type": "string"
        },
        {
          "internalType": "uint256",
          "name": "_tokenId",
          "type": "uint256"
        }
      ],
      "name": "createToken",
      "outputs": [
        {
          "internalType": "uint256",
          "name": "",
          "type": "uint256"
        }
      ],
      "stateMutability": "nonpayable",
      "type": "function"
    },
    {
      "inputs": [
        {
          "internalType": "uint256",
          "name": "tokenId",
          "type": "uint256"
        }
      ],
      "name": "getApproved",
      "outputs": [
        {
          "internalType": "address",
          "name": "",
          "type": "address"
        }
      ],
      "stateMutability": "view",
      "type": "function"
    },
    {
      "inputs": [],
      "name": "getPowerupLength",
      "outputs": [
        {
          "internalType": "uint256",
          "name": "",
          "type": "uint256"
        }
      ],
      "stateMutability": "view",
      "type": "function"
    },
    {
      "inputs": [
        {
          "internalType": "address",
          "name": "owner",
          "type": "address"
        },
        {
          "internalType": "address",
          "name": "operator",
          "type": "address"
        }
      ],
      "name": "isApprovedForAll",
      "outputs": [
        {
          "internalType": "bool",
          "name": "",
          "type": "bool"
        }
      ],
      "stateMutability": "view",
      "type": "function"
    },
    {
      "inputs": [],
      "name": "name",
      "outputs": [
        {
          "internalType": "string",
          "name": "",
          "type": "string"
        }
      ],
      "stateMutability": "view",
      "type": "function"
    },
    {
      "inputs": [],
      "name": "owner",
      "outputs": [
        {
          "internalType": "address",
          "name": "",
          "type": "address"
        }
      ],
      "stateMutability": "view",
      "type": "function"
    },
    {
      "inputs": [
        {
          "internalType": "uint256",
          "name": "tokenId",
          "type": "uint256"
        }
      ],
      "name": "ownerOf",
      "outputs": [
        {
          "internalType": "address",
          "name": "",
          "type": "address"
        }
      ],
      "stateMutability": "view",
      "type": "function"
    },
    {
      "inputs": [
        {
          "internalType": "uint256",
          "name": "_index",
          "type": "uint256"
        }
      ],
      "name": "readPowerup",
      "outputs": [
        {
          "internalType": "address payable",
          "name": "",
          "type": "address"
        },
        {
          "internalType": "string",
          "name": "",
          "type": "string"
        },
        {
          "internalType": "string",
          "name": "",
          "type": "string"
        },
        {
          "internalType": "uint256",
          "name": "",
          "type": "uint256"
        },
        {
          "internalType": "uint256",
          "name": "",
          "type": "uint256"
        },
        {
          "internalType": "bool",
          "name": "",
          "type": "bool"
        }
      ],
      "stateMutability": "view",
      "type": "function"
    },
    {
      "inputs": [],
      "name": "renounceOwnership",
      "outputs": [],
      "stateMutability": "nonpayable",
      "type": "function"
    },
    {
      "inputs": [
        {
          "internalType": "uint256",
          "name": "_tokenId",
          "type": "uint256"
        },
        {
          "internalType": "uint256",
          "name": "_price",
          "type": "uint256"
        }
      ],
      "name": "resellPowerup",
      "outputs": [],
      "stateMutability": "nonpayable",
      "type": "function"
    },
    {
      "inputs": [
        {
          "internalType": "address",
          "name": "from",
          "type": "address"
        },
        {
          "internalType": "address",
          "name": "to",
          "type": "address"
        },
        {
          "internalType": "uint256",
          "name": "tokenId",
          "type": "uint256"
        }
      ],
      "name": "safeTransferFrom",
      "outputs": [],
      "stateMutability": "nonpayable",
      "type": "function"
    },
    {
      "inputs": [
        {
          "internalType": "address",
          "name": "from",
          "type": "address"
        },
        {
          "internalType": "address",
          "name": "to",
          "type": "address"
        },
        {
          "internalType": "uint256",
          "name": "tokenId",
          "type": "uint256"
        },
        {
          "internalType": "bytes",
          "name": "_data",
          "type": "bytes"
        }
      ],
      "name": "safeTransferFrom",
      "outputs": [],
      "stateMutability": "nonpayable",
      "type": "function"
    },
    {
      "inputs": [
        {
          "internalType": "address",
          "name": "operator",
          "type": "address"
        },
        {
          "internalType": "bool",
          "name": "approved",
          "type": "bool"
        }
      ],
      "name": "setApprovalForAll",
      "outputs": [],
      "stateMutability": "nonpayable",
      "type": "function"
    },
    {
      "inputs": [
        {
          "internalType": "bytes4",
          "name": "interfaceId",
          "type": "bytes4"
        }
      ],
      "name": "supportsInterface",
      "outputs": [
        {
          "internalType": "bool",
          "name": "",
          "type": "bool"
        }
      ],
      "stateMutability": "view",
      "type": "function"
    },
    {
      "inputs": [],
      "name": "symbol",
      "outputs": [
        {
          "internalType": "string",
          "name": "",
          "type": "string"
        }
      ],
      "stateMutability": "view",
      "type": "function"
    },
    {
      "inputs": [
        {
          "internalType": "uint256",
          "name": "index",
          "type": "uint256"
        }
      ],
      "name": "tokenByIndex",
      "outputs": [
        {
          "internalType": "uint256",
          "name": "",
          "type": "uint256"
        }
      ],
      "stateMutability": "view",
      "type": "function"
    },
    {
      "inputs": [
        {
          "internalType": "address",
          "name": "owner",
          "type": "address"
        },
        {
          "internalType": "uint256",
          "name": "index",
          "type": "uint256"
        }
      ],
      "name": "tokenOfOwnerByIndex",
      "outputs": [
        {
          "internalType": "uint256",
          "name": "",
          "type": "uint256"
        }
      ],
      "stateMutability": "view",
      "type": "function"
    },
    {
      "inputs": [
        {
          "internalType": "uint256",
          "name": "tokenId",
          "type": "uint256"
        }
      ],
      "name": "tokenURI",
      "outputs": [
        {
          "internalType": "string",
          "name": "",
          "type": "string"
        }
      ],
      "stateMutability": "view",
      "type": "function"
    },
    {
      "inputs": [],
      "name": "totalSupply",
      "outputs": [
        {
          "internalType": "uint256",
          "name": "",
          "type": "uint256"
        }
      ],
      "stateMutability": "view",
      "type": "function"
    },
    {
      "inputs": [
        {
          "internalType": "address",
          "name": "from",
          "type": "address"
        },
        {
          "internalType": "address",
          "name": "to",
          "type": "address"
        },
        {
          "internalType": "uint256",
          "name": "tokenId",
          "type": "uint256"
        }
      ],
      "name": "transferFrom",
      "outputs": [],
      "stateMutability": "nonpayable",
      "type": "function"
    },
    {
      "inputs": [
        {
          "internalType": "address",
          "name": "newOwner",
          "type": "address"
        }
      ],
      "name": "transferOwnership",
      "outputs": [],
      "stateMutability": "nonpayable",
      "type": "function"
    },
    {
      "inputs": [
        {
          "internalType": "string",
          "name": "_name",
          "type": "string"
        },
        {
          "internalType": "string",
          "name": "_image",
          "type": "string"
        },
        {
          "internalType": "string",
          "name": "_uri",
          "type": "string"
        },
        {
          "internalType": "uint256",
          "name": "_price",
          "type": "uint256"
        }
      ],
      "name": "uploadPowerup",
      "outputs": [],
      "stateMutability": "nonpayable",
      "type": "function"
    }
  ],
  "bytecode": "0x60806040526000600d553480156200001657600080fd5b506040518060400160405280600d81526020017f47616d657370686572654e4654000000000000000000000000000000000000008152506040518060400160405280600481526020017f474e46540000000000000000000000000000000000000000000000000000000081525081600090805190602001906200009b929190620001ab565b508060019080519060200190620000b4929190620001ab565b505050620000d7620000cb620000dd60201b60201c565b620000e560201b60201c565b620002c0565b600033905090565b6000600b60009054906101000a900473ffffffffffffffffffffffffffffffffffffffff16905081600b60006101000a81548173ffffffffffffffffffffffffffffffffffffffff021916908373ffffffffffffffffffffffffffffffffffffffff1602179055508173ffffffffffffffffffffffffffffffffffffffff168173ffffffffffffffffffffffffffffffffffffffff167f8be0079c531659141344cd1fd0a4f28419497f9722a3daafe3b4186f6b6457e060405160405180910390a35050565b828054620001b9906200025b565b90600052602060002090601f016020900481019282620001dd576000855562000229565b82601f10620001f857805160ff191683800117855562000229565b8280016001018555821562000229579182015b82811115620002285782518255916020019190600101906200020b565b5b5090506200023891906200023c565b5090565b5b80821115620002575760008160009055506001016200023d565b5090565b600060028204905060018216806200027457607f821691505b602082108114156200028b576200028a62000291565b5b50919050565b7f4e487b7100000000000000000000000000000000000000000000000000000000600052602260045260246000fd5b61493d80620002d06000396000f3fe6080604052600436106101665760003560e01c80636352211e116100d1578063a22cb4651161008a578063d270efee11610064578063d270efee1461056a578063e985e9c514610593578063f0f9b8c7146105d0578063f2fde38b146105fb57610166565b8063a22cb465146104db578063b88d4fde14610504578063c87b56dd1461052d57610166565b80636352211e146103b757806370a08231146103f4578063715018a61461043157806372b3b620146104485780638da5cb5b1461048557806395d89b41146104b057610166565b80632f745c59116101235780632f745c591461028d5780633448b255146102ca578063370c0707146102e657806342554d921461032857806342842e0e146103515780634f6ccce71461037a57610166565b806301ffc9a71461016b57806306fdde03146101a8578063081812fc146101d3578063095ea7b31461021057806318160ddd1461023957806323b872dd14610264575b600080fd5b34801561017757600080fd5b50610192600480360381019061018d919061319f565b610624565b60405161019f9190613948565b60405180910390f35b3480156101b457600080fd5b506101bd610636565b6040516101ca9190613963565b60405180910390f35b3480156101df57600080fd5b506101fa60048036038101906101f591906132f0565b6106c8565b6040516102079190613872565b60405180910390f35b34801561021c57600080fd5b5061023760048036038101906102329190613163565b61074d565b005b34801561024557600080fd5b5061024e610865565b60405161025b9190613d45565b60405180910390f35b34801561027057600080fd5b5061028b6004803603810190610286919061305d565b610872565b005b34801561029957600080fd5b506102b460048036038101906102af9190613163565b6108d2565b6040516102c19190613d45565b60405180910390f35b6102e460048036038101906102df91906132f0565b610977565b005b3480156102f257600080fd5b5061030d600480360381019061030891906132f0565b610c59565b60405161031f9695949392919061388d565b60405180910390f35b34801561033457600080fd5b5061034f600480360381019061034a91906131f1565b610e45565b005b34801561035d57600080fd5b506103786004803603810190610373919061305d565b610fe3565b005b34801561038657600080fd5b506103a1600480360381019061039c91906132f0565b611003565b6040516103ae9190613d45565b60405180910390f35b3480156103c357600080fd5b506103de60048036038101906103d991906132f0565b61109a565b6040516103eb9190613872565b60405180910390f35b34801561040057600080fd5b5061041b60048036038101906104169190612ff8565b61114c565b6040516104289190613d45565b60405180910390f35b34801561043d57600080fd5b50610446611204565b005b34801561045457600080fd5b5061046f600480360381019061046a919061329c565b61128c565b60405161047c9190613d45565b60405180910390f35b34801561049157600080fd5b5061049a6113c3565b6040516104a79190613872565b60405180910390f35b3480156104bc57600080fd5b506104c56113ed565b6040516104d29190613963565b60405180910390f35b3480156104e757600080fd5b5061050260048036038101906104fd9190613127565b61147f565b005b34801561051057600080fd5b5061052b600480360381019061052691906130ac565b611495565b005b34801561053957600080fd5b50610554600480360381019061054f91906132f0565b6114f7565b6040516105619190613963565b60405180910390f35b34801561057657600080fd5b50610591600480360381019061058c9190613319565b611509565b005b34801561059f57600080fd5b506105ba60048036038101906105b59190613021565b6116b7565b6040516105c79190613948565b60405180910390f35b3480156105dc57600080fd5b506105e561174b565b6040516105f29190613d45565b60405180910390f35b34801561060757600080fd5b50610622600480360381019061061d9190612ff8565b611755565b005b600061062f8261184d565b9050919050565b60606000805461064590613fad565b80601f016020809104026020016040519081016040528092919081815260200182805461067190613fad565b80156106be5780601f10610693576101008083540402835291602001916106be565b820191906000526020600020905b8154815290600101906020018083116106a157829003601f168201915b5050505050905090565b60006106d3826118c7565b610712576040517f08c379a000000000000000000000000000000000000000000000000000000000815260040161070990613be5565b60405180910390fd5b6004600083815260200190815260200160002060009054906101000a900473ffffffffffffffffffffffffffffffffffffffff169050919050565b60006107588261109a565b90508073ffffffffffffffffffffffffffffffffffffffff168373ffffffffffffffffffffffffffffffffffffffff1614156107c9576040517f08c379a00000000000000000000000000000000000000000000000000000000081526004016107c090613c85565b60405180910390fd5b8073ffffffffffffffffffffffffffffffffffffffff166107e8611933565b73ffffffffffffffffffffffffffffffffffffffff161480610817575061081681610811611933565b6116b7565b5b610856576040517f08c379a000000000000000000000000000000000000000000000000000000000815260040161084d90613ae5565b60405180910390fd5b610860838361193b565b505050565b6000600880549050905090565b61088361087d611933565b826119f4565b6108c2576040517f08c379a00000000000000000000000000000000000000000000000000000000081526004016108b990613ce5565b60405180910390fd5b6108cd838383611ad2565b505050565b60006108dd8361114c565b821061091e576040517f08c379a000000000000000000000000000000000000000000000000000000000815260040161091590613985565b60405180910390fd5b600660008473ffffffffffffffffffffffffffffffffffffffff1673ffffffffffffffffffffffffffffffffffffffff168152602001908152602001600020600083815260200190815260200160002054905092915050565b6000600e60008381526020019081526020016000206004015490506000600e600084815260200190815260200160002060050160009054906101000a900460ff169050813410156109fd576040517f08c379a00000000000000000000000000000000000000000000000000000000081526004016109f490613ca5565b60405180910390fd5b600e600084815260200190815260200160002060000160009054906101000a900473ffffffffffffffffffffffffffffffffffffffff1673ffffffffffffffffffffffffffffffffffffffff163373ffffffffffffffffffffffffffffffffffffffff161415610aa2576040517f08c379a0000000000000000000000000000000000000000000000000000000008152600401610a9990613c45565b60405180910390fd5b80610ae2576040517f08c379a0000000000000000000000000000000000000000000000000000000008152600401610ad990613cc5565b60405180910390fd5b600e6000848152602001908152602001600020600301548314610b3a576040517f08c379a0000000000000000000000000000000000000000000000000000000008152600401610b3190613b05565b60405180910390fd5b6000610b458461109a565b9050610b52813386611ad2565b600e600085815260200190815260200160002060000160009054906101000a900473ffffffffffffffffffffffffffffffffffffffff1673ffffffffffffffffffffffffffffffffffffffff166108fc349081150290604051600060405180830381858888f19350505050158015610bce573d6000803e3d6000fd5b5033600e600086815260200190815260200160002060000160006101000a81548173ffffffffffffffffffffffffffffffffffffffff021916908373ffffffffffffffffffffffffffffffffffffffff1602179055506000600e600086815260200190815260200160002060050160006101000a81548160ff02191690831515021790555050505050565b60006060806000806000600e600088815260200190815260200160002060000160009054906101000a900473ffffffffffffffffffffffffffffffffffffffff16600e6000898152602001908152602001600020600101600e60008a8152602001908152602001600020600201600e60008b815260200190815260200160002060030154600e60008c815260200190815260200160002060040154600e60008d815260200190815260200160002060050160009054906101000a900460ff16848054610d2490613fad565b80601f0160208091040260200160405190810160405280929190818152602001828054610d5090613fad565b8015610d9d5780601f10610d7257610100808354040283529160200191610d9d565b820191906000526020600020905b815481529060010190602001808311610d8057829003601f168201915b50505050509450838054610db090613fad565b80601f0160208091040260200160405190810160405280929190818152602001828054610ddc90613fad565b8015610e295780601f10610dfe57610100808354040283529160200191610e29565b820191906000526020600020905b815481529060010190602001808311610e0c57829003601f168201915b5050505050935095509550955095509550955091939550919395565b60008111610e88576040517f08c379a0000000000000000000000000000000000000000000000000000000008152600401610e7f90613c65565b60405180910390fd5b6000610e94600c611d39565b90506000600190506040518060c001604052803373ffffffffffffffffffffffffffffffffffffffff168152602001878152602001868152602001838152602001848152602001821515815250600e6000600d54815260200190815260200160002060008201518160000160006101000a81548173ffffffffffffffffffffffffffffffffffffffff021916908373ffffffffffffffffffffffffffffffffffffffff1602179055506020820151816001019080519060200190610f59929190612e1c565b506040820151816002019080519060200190610f76929190612e1c565b50606082015181600301556080820151816004015560a08201518160050160006101000a81548160ff021916908315150217905550905050610fb8848361128c565b50600d6000815480929190610fcc90614010565b9190505550610fdb600c611d47565b505050505050565b610ffe83838360405180602001604052806000815250611495565b505050565b600061100d610865565b821061104e576040517f08c379a000000000000000000000000000000000000000000000000000000000815260040161104590613d05565b60405180910390fd5b60088281548110611088577f4e487b7100000000000000000000000000000000000000000000000000000000600052603260045260246000fd5b90600052602060002001549050919050565b6000806002600084815260200190815260200160002060009054906101000a900473ffffffffffffffffffffffffffffffffffffffff169050600073ffffffffffffffffffffffffffffffffffffffff168173ffffffffffffffffffffffffffffffffffffffff161415611143576040517f08c379a000000000000000000000000000000000000000000000000000000000815260040161113a90613b45565b60405180910390fd5b80915050919050565b60008073ffffffffffffffffffffffffffffffffffffffff168273ffffffffffffffffffffffffffffffffffffffff1614156111bd576040517f08c379a00000000000000000000000000000000000000000000000000000000081526004016111b490613b25565b60405180910390fd5b600360008373ffffffffffffffffffffffffffffffffffffffff1673ffffffffffffffffffffffffffffffffffffffff168152602001908152602001600020549050919050565b61120c611933565b73ffffffffffffffffffffffffffffffffffffffff1661122a6113c3565b73ffffffffffffffffffffffffffffffffffffffff1614611280576040517f08c379a000000000000000000000000000000000000000000000000000000000815260040161127790613c05565b60405180910390fd5b61128a6000611d5d565b565b6000600e60008381526020019081526020016000206003015482146112e6576040517f08c379a00000000000000000000000000000000000000000000000000000000081526004016112dd90613b85565b60405180910390fd5b600e600083815260200190815260200160002060000160009054906101000a900473ffffffffffffffffffffffffffffffffffffffff1673ffffffffffffffffffffffffffffffffffffffff163373ffffffffffffffffffffffffffffffffffffffff161461138a576040517f08c379a000000000000000000000000000000000000000000000000000000000815260040161138190613a45565b60405180910390fd5b6000600e60008481526020019081526020016000206003015490506113af3382611e23565b6113b98185611e41565b8091505092915050565b6000600b60009054906101000a900473ffffffffffffffffffffffffffffffffffffffff16905090565b6060600180546113fc90613fad565b80601f016020809104026020016040519081016040528092919081815260200182805461142890613fad565b80156114755780601f1061144a57610100808354040283529160200191611475565b820191906000526020600020905b81548152906001019060200180831161145857829003601f168201915b5050505050905090565b61149161148a611933565b8383611eb5565b5050565b6114a66114a0611933565b836119f4565b6114e5576040517f08c379a00000000000000000000000000000000000000000000000000000000081526004016114dc90613ce5565b60405180910390fd5b6114f184848484612022565b50505050565b60606115028261207e565b9050919050565b600e600083815260200190815260200160002060000160009054906101000a900473ffffffffffffffffffffffffffffffffffffffff1673ffffffffffffffffffffffffffffffffffffffff163373ffffffffffffffffffffffffffffffffffffffff16146115ad576040517f08c379a00000000000000000000000000000000000000000000000000000000081526004016115a490613aa5565b60405180910390fd5b600e6000838152602001908152602001600020600301548214611605576040517f08c379a00000000000000000000000000000000000000000000000000000000081526004016115fc90613d25565b60405180910390fd5b600e600083815260200190815260200160002060050160009054906101000a900460ff1615611669576040517f08c379a000000000000000000000000000000000000000000000000000000000815260040161166090613a25565b60405180910390fd5b6001600e600084815260200190815260200160002060050160006101000a81548160ff02191690831515021790555080600e6000848152602001908152602001600020600401819055505050565b6000600560008473ffffffffffffffffffffffffffffffffffffffff1673ffffffffffffffffffffffffffffffffffffffff16815260200190815260200160002060008373ffffffffffffffffffffffffffffffffffffffff1673ffffffffffffffffffffffffffffffffffffffff16815260200190815260200160002060009054906101000a900460ff16905092915050565b6000600d54905090565b61175d611933565b73ffffffffffffffffffffffffffffffffffffffff1661177b6113c3565b73ffffffffffffffffffffffffffffffffffffffff16146117d1576040517f08c379a00000000000000000000000000000000000000000000000000000000081526004016117c890613c05565b60405180910390fd5b600073ffffffffffffffffffffffffffffffffffffffff168173ffffffffffffffffffffffffffffffffffffffff161415611841576040517f08c379a0000000000000000000000000000000000000000000000000000000008152600401611838906139c5565b60405180910390fd5b61184a81611d5d565b50565b60007f780e9d63000000000000000000000000000000000000000000000000000000007bffffffffffffffffffffffffffffffffffffffffffffffffffffffff1916827bffffffffffffffffffffffffffffffffffffffffffffffffffffffff191614806118c057506118bf826121d0565b5b9050919050565b60008073ffffffffffffffffffffffffffffffffffffffff166002600084815260200190815260200160002060009054906101000a900473ffffffffffffffffffffffffffffffffffffffff1673ffffffffffffffffffffffffffffffffffffffff1614159050919050565b600033905090565b816004600083815260200190815260200160002060006101000a81548173ffffffffffffffffffffffffffffffffffffffff021916908373ffffffffffffffffffffffffffffffffffffffff160217905550808273ffffffffffffffffffffffffffffffffffffffff166119ae8361109a565b73ffffffffffffffffffffffffffffffffffffffff167f8c5be1e5ebec7d5bd14f71427d1e84f3dd0314c0f7b2291e5b200ac8c7c3b92560405160405180910390a45050565b60006119ff826118c7565b611a3e576040517f08c379a0000000000000000000000000000000000000000000000000000000008152600401611a3590613ac5565b60405180910390fd5b6000611a498361109a565b90508073ffffffffffffffffffffffffffffffffffffffff168473ffffffffffffffffffffffffffffffffffffffff161480611ab857508373ffffffffffffffffffffffffffffffffffffffff16611aa0846106c8565b73ffffffffffffffffffffffffffffffffffffffff16145b80611ac95750611ac881856116b7565b5b91505092915050565b8273ffffffffffffffffffffffffffffffffffffffff16611af28261109a565b73ffffffffffffffffffffffffffffffffffffffff1614611b48576040517f08c379a0000000000000000000000000000000000000000000000000000000008152600401611b3f906139e5565b60405180910390fd5b600073ffffffffffffffffffffffffffffffffffffffff168273ffffffffffffffffffffffffffffffffffffffff161415611bb8576040517f08c379a0000000000000000000000000000000000000000000000000000000008152600401611baf90613a65565b60405180910390fd5b611bc38383836122b2565b611bce60008261193b565b6001600360008573ffffffffffffffffffffffffffffffffffffffff1673ffffffffffffffffffffffffffffffffffffffff1681526020019081526020016000206000828254611c1e9190613eb1565b925050819055506001600360008473ffffffffffffffffffffffffffffffffffffffff1673ffffffffffffffffffffffffffffffffffffffff1681526020019081526020016000206000828254611c759190613e2a565b92505081905550816002600083815260200190815260200160002060006101000a81548173ffffffffffffffffffffffffffffffffffffffff021916908373ffffffffffffffffffffffffffffffffffffffff160217905550808273ffffffffffffffffffffffffffffffffffffffff168473ffffffffffffffffffffffffffffffffffffffff167fddf252ad1be2c89b69c2b068fc378daa952ba7f163c4a11628f55a4df523b3ef60405160405180910390a4611d348383836122c2565b505050565b600081600001549050919050565b6001816000016000828254019250508190555050565b6000600b60009054906101000a900473ffffffffffffffffffffffffffffffffffffffff16905081600b60006101000a81548173ffffffffffffffffffffffffffffffffffffffff021916908373ffffffffffffffffffffffffffffffffffffffff1602179055508173ffffffffffffffffffffffffffffffffffffffff168173ffffffffffffffffffffffffffffffffffffffff167f8be0079c531659141344cd1fd0a4f28419497f9722a3daafe3b4186f6b6457e060405160405180910390a35050565b611e3d8282604051806020016040528060008152506122c7565b5050565b611e4a826118c7565b611e89576040517f08c379a0000000000000000000000000000000000000000000000000000000008152600401611e8090613b65565b60405180910390fd5b80600a60008481526020019081526020016000209080519060200190611eb0929190612e1c565b505050565b8173ffffffffffffffffffffffffffffffffffffffff168373ffffffffffffffffffffffffffffffffffffffff161415611f24576040517f08c379a0000000000000000000000000000000000000000000000000000000008152600401611f1b90613a85565b60405180910390fd5b80600560008573ffffffffffffffffffffffffffffffffffffffff1673ffffffffffffffffffffffffffffffffffffffff16815260200190815260200160002060008473ffffffffffffffffffffffffffffffffffffffff1673ffffffffffffffffffffffffffffffffffffffff16815260200190815260200160002060006101000a81548160ff0219169083151502179055508173ffffffffffffffffffffffffffffffffffffffff168373ffffffffffffffffffffffffffffffffffffffff167f17307eab39ab6107e8899845ad3d59bd9653f200f220920489ca2b5937696c31836040516120159190613948565b60405180910390a3505050565b61202d848484611ad2565b61203984848484612322565b612078576040517f08c379a000000000000000000000000000000000000000000000000000000000815260040161206f906139a5565b60405180910390fd5b50505050565b6060612089826118c7565b6120c8576040517f08c379a00000000000000000000000000000000000000000000000000000000081526004016120bf90613bc5565b60405180910390fd5b6000600a600084815260200190815260200160002080546120e890613fad565b80601f016020809104026020016040519081016040528092919081815260200182805461211490613fad565b80156121615780601f1061213657610100808354040283529160200191612161565b820191906000526020600020905b81548152906001019060200180831161214457829003601f168201915b5050505050905060006121726124b9565b90506000815114156121885781925050506121cb565b6000825111156121bd5780826040516020016121a592919061384e565b604051602081830303815290604052925050506121cb565b6121c6846124d0565b925050505b919050565b60007f80ac58cd000000000000000000000000000000000000000000000000000000007bffffffffffffffffffffffffffffffffffffffffffffffffffffffff1916827bffffffffffffffffffffffffffffffffffffffffffffffffffffffff1916148061229b57507f5b5e139f000000000000000000000000000000000000000000000000000000007bffffffffffffffffffffffffffffffffffffffffffffffffffffffff1916827bffffffffffffffffffffffffffffffffffffffffffffffffffffffff1916145b806122ab57506122aa82612577565b5b9050919050565b6122bd8383836125e1565b505050565b505050565b6122d183836126f5565b6122de6000848484612322565b61231d576040517f08c379a0000000000000000000000000000000000000000000000000000000008152600401612314906139a5565b60405180910390fd5b505050565b60006123438473ffffffffffffffffffffffffffffffffffffffff166128cf565b156124ac578373ffffffffffffffffffffffffffffffffffffffff1663150b7a0261236c611933565b8786866040518563ffffffff1660e01b815260040161238e94939291906138fc565b602060405180830381600087803b1580156123a857600080fd5b505af19250505080156123d957506040513d601f19601f820116820180604052508101906123d691906131c8565b60015b61245c573d8060008114612409576040519150601f19603f3d011682016040523d82523d6000602084013e61240e565b606091505b50600081511415612454576040517f08c379a000000000000000000000000000000000000000000000000000000000815260040161244b906139a5565b60405180910390fd5b805181602001fd5b63150b7a0260e01b7bffffffffffffffffffffffffffffffffffffffffffffffffffffffff1916817bffffffffffffffffffffffffffffffffffffffffffffffffffffffff1916149150506124b1565b600190505b949350505050565b606060405180602001604052806000815250905090565b60606124db826118c7565b61251a576040517f08c379a000000000000000000000000000000000000000000000000000000000815260040161251190613c25565b60405180910390fd5b60006125246124b9565b90506000815111612544576040518060200160405280600081525061256f565b8061254e846128f2565b60405160200161255f92919061384e565b6040516020818303038152906040525b915050919050565b60007f01ffc9a7000000000000000000000000000000000000000000000000000000007bffffffffffffffffffffffffffffffffffffffffffffffffffffffff1916827bffffffffffffffffffffffffffffffffffffffffffffffffffffffff1916149050919050565b6125ec838383612a9f565b600073ffffffffffffffffffffffffffffffffffffffff168373ffffffffffffffffffffffffffffffffffffffff16141561262f5761262a81612aa4565b61266e565b8173ffffffffffffffffffffffffffffffffffffffff168373ffffffffffffffffffffffffffffffffffffffff161461266d5761266c8382612aed565b5b5b600073ffffffffffffffffffffffffffffffffffffffff168273ffffffffffffffffffffffffffffffffffffffff1614156126b1576126ac81612c5a565b6126f0565b8273ffffffffffffffffffffffffffffffffffffffff168273ffffffffffffffffffffffffffffffffffffffff16146126ef576126ee8282612d9d565b5b5b505050565b600073ffffffffffffffffffffffffffffffffffffffff168273ffffffffffffffffffffffffffffffffffffffff161415612765576040517f08c379a000000000000000000000000000000000000000000000000000000000815260040161275c90613ba5565b60405180910390fd5b61276e816118c7565b156127ae576040517f08c379a00000000000000000000000000000000000000000000000000000000081526004016127a590613a05565b60405180910390fd5b6127ba600083836122b2565b6001600360008473ffffffffffffffffffffffffffffffffffffffff1673ffffffffffffffffffffffffffffffffffffffff168152602001908152602001600020600082825461280a9190613e2a565b92505081905550816002600083815260200190815260200160002060006101000a81548173ffffffffffffffffffffffffffffffffffffffff021916908373ffffffffffffffffffffffffffffffffffffffff160217905550808273ffffffffffffffffffffffffffffffffffffffff16600073ffffffffffffffffffffffffffffffffffffffff167fddf252ad1be2c89b69c2b068fc378daa952ba7f163c4a11628f55a4df523b3ef60405160405180910390a46128cb600083836122c2565b5050565b6000808273ffffffffffffffffffffffffffffffffffffffff163b119050919050565b6060600082141561293a576040518060400160405280600181526020017f30000000000000000000000000000000000000000000000000000000000000008152509050612a9a565b600082905060005b6000821461296c57808061295590614010565b915050600a826129659190613e80565b9150612942565b60008167ffffffffffffffff8111156129ae577f4e487b7100000000000000000000000000000000000000000000000000000000600052604160045260246000fd5b6040519080825280601f01601f1916602001820160405280156129e05781602001600182028036833780820191505090505b5090505b60008514612a93576001826129f99190613eb1565b9150600a85612a089190614059565b6030612a149190613e2a565b60f81b818381518110612a50577f4e487b7100000000000000000000000000000000000000000000000000000000600052603260045260246000fd5b60200101907effffffffffffffffffffffffffffffffffffffffffffffffffffffffffffff1916908160001a905350600a85612a8c9190613e80565b94506129e4565b8093505050505b919050565b505050565b6008805490506009600083815260200190815260200160002081905550600881908060018154018082558091505060019003906000526020600020016000909190919091505550565b60006001612afa8461114c565b612b049190613eb1565b9050600060076000848152602001908152602001600020549050818114612be9576000600660008673ffffffffffffffffffffffffffffffffffffffff1673ffffffffffffffffffffffffffffffffffffffff168152602001908152602001600020600084815260200190815260200160002054905080600660008773ffffffffffffffffffffffffffffffffffffffff1673ffffffffffffffffffffffffffffffffffffffff168152602001908152602001600020600084815260200190815260200160002081905550816007600083815260200190815260200160002081905550505b6007600084815260200190815260200160002060009055600660008573ffffffffffffffffffffffffffffffffffffffff1673ffffffffffffffffffffffffffffffffffffffff16815260200190815260200160002060008381526020019081526020016000206000905550505050565b60006001600880549050612c6e9190613eb1565b9050600060096000848152602001908152602001600020549050600060088381548110612cc4577f4e487b7100000000000000000000000000000000000000000000000000000000600052603260045260246000fd5b906000526020600020015490508060088381548110612d0c577f4e487b7100000000000000000000000000000000000000000000000000000000600052603260045260246000fd5b906000526020600020018190555081600960008381526020019081526020016000208190555060096000858152602001908152602001600020600090556008805480612d81577f4e487b7100000000000000000000000000000000000000000000000000000000600052603160045260246000fd5b6001900381819060005260206000200160009055905550505050565b6000612da88361114c565b905081600660008573ffffffffffffffffffffffffffffffffffffffff1673ffffffffffffffffffffffffffffffffffffffff168152602001908152602001600020600083815260200190815260200160002081905550806007600084815260200190815260200160002081905550505050565b828054612e2890613fad565b90600052602060002090601f016020900481019282612e4a5760008555612e91565b82601f10612e6357805160ff1916838001178555612e91565b82800160010185558215612e91579182015b82811115612e90578251825591602001919060010190612e75565b5b509050612e9e9190612ea2565b5090565b5b80821115612ebb576000816000905550600101612ea3565b5090565b6000612ed2612ecd84613d85565b613d60565b905082815260208101848484011115612eea57600080fd5b612ef5848285613f6b565b509392505050565b6000612f10612f0b84613db6565b613d60565b905082815260208101848484011115612f2857600080fd5b612f33848285613f6b565b509392505050565b600081359050612f4a816148ab565b92915050565b600081359050612f5f816148c2565b92915050565b600081359050612f74816148d9565b92915050565b600081519050612f89816148d9565b92915050565b600082601f830112612fa057600080fd5b8135612fb0848260208601612ebf565b91505092915050565b600082601f830112612fca57600080fd5b8135612fda848260208601612efd565b91505092915050565b600081359050612ff2816148f0565b92915050565b60006020828403121561300a57600080fd5b600061301884828501612f3b565b91505092915050565b6000806040838503121561303457600080fd5b600061304285828601612f3b565b925050602061305385828601612f3b565b9150509250929050565b60008060006060848603121561307257600080fd5b600061308086828701612f3b565b935050602061309186828701612f3b565b92505060406130a286828701612fe3565b9150509250925092565b600080600080608085870312156130c257600080fd5b60006130d087828801612f3b565b94505060206130e187828801612f3b565b93505060406130f287828801612fe3565b925050606085013567ffffffffffffffff81111561310f57600080fd5b61311b87828801612f8f565b91505092959194509250565b6000806040838503121561313a57600080fd5b600061314885828601612f3b565b925050602061315985828601612f50565b9150509250929050565b6000806040838503121561317657600080fd5b600061318485828601612f3b565b925050602061319585828601612fe3565b9150509250929050565b6000602082840312156131b157600080fd5b60006131bf84828501612f65565b91505092915050565b6000602082840312156131da57600080fd5b60006131e884828501612f7a565b91505092915050565b6000806000806080858703121561320757600080fd5b600085013567ffffffffffffffff81111561322157600080fd5b61322d87828801612fb9565b945050602085013567ffffffffffffffff81111561324a57600080fd5b61325687828801612fb9565b935050604085013567ffffffffffffffff81111561327357600080fd5b61327f87828801612fb9565b925050606061329087828801612fe3565b91505092959194509250565b600080604083850312156132af57600080fd5b600083013567ffffffffffffffff8111156132c957600080fd5b6132d585828601612fb9565b92505060206132e685828601612fe3565b9150509250929050565b60006020828403121561330257600080fd5b600061331084828501612fe3565b91505092915050565b6000806040838503121561332c57600080fd5b600061333a85828601612fe3565b925050602061334b85828601612fe3565b9150509250929050565b61335e81613ef7565b82525050565b61336d81613ee5565b82525050565b61337c81613f09565b82525050565b600061338d82613de7565b6133978185613dfd565b93506133a7818560208601613f7a565b6133b081614146565b840191505092915050565b60006133c682613df2565b6133d08185613e0e565b93506133e0818560208601613f7a565b6133e981614146565b840191505092915050565b60006133ff82613df2565b6134098185613e1f565b9350613419818560208601613f7a565b80840191505092915050565b6000613432602b83613e0e565b915061343d82614157565b604082019050919050565b6000613455603283613e0e565b9150613460826141a6565b604082019050919050565b6000613478602683613e0e565b9150613483826141f5565b604082019050919050565b600061349b602583613e0e565b91506134a682614244565b604082019050919050565b60006134be601c83613e0e565b91506134c982614293565b602082019050919050565b60006134e1601e83613e0e565b91506134ec826142bc565b602082019050919050565b6000613504601c83613e0e565b915061350f826142e5565b602082019050919050565b6000613527602483613e0e565b91506135328261430e565b604082019050919050565b600061354a601983613e0e565b91506135558261435d565b602082019050919050565b600061356d601f83613e0e565b915061357882614386565b602082019050919050565b6000613590602c83613e0e565b915061359b826143af565b604082019050919050565b60006135b3603883613e0e565b91506135be826143fe565b604082019050919050565b60006135d6601683613e0e565b91506135e18261444d565b602082019050919050565b60006135f9602a83613e0e565b915061360482614476565b604082019050919050565b600061361c602983613e0e565b9150613627826144c5565b604082019050919050565b600061363f602e83613e0e565b915061364a82614514565b604082019050919050565b6000613662602483613e0e565b915061366d82614563565b604082019050919050565b6000613685602083613e0e565b9150613690826145b2565b602082019050919050565b60006136a8603183613e0e565b91506136b3826145db565b604082019050919050565b60006136cb602c83613e0e565b91506136d68261462a565b604082019050919050565b60006136ee602083613e0e565b91506136f982614679565b602082019050919050565b6000613711602f83613e0e565b915061371c826146a2565b604082019050919050565b6000613734601d83613e0e565b915061373f826146f1565b602082019050919050565b6000613757601883613e0e565b91506137628261471a565b602082019050919050565b600061377a602183613e0e565b915061378582614743565b604082019050919050565b600061379d601783613e0e565b91506137a882614792565b602082019050919050565b60006137c0601483613e0e565b91506137cb826147bb565b602082019050919050565b60006137e3603183613e0e565b91506137ee826147e4565b604082019050919050565b6000613806602c83613e0e565b915061381182614833565b604082019050919050565b6000613829601583613e0e565b915061383482614882565b602082019050919050565b61384881613f61565b82525050565b600061385a82856133f4565b915061386682846133f4565b91508190509392505050565b60006020820190506138876000830184613364565b92915050565b600060c0820190506138a26000830189613355565b81810360208301526138b481886133bb565b905081810360408301526138c881876133bb565b90506138d7606083018661383f565b6138e4608083018561383f565b6138f160a0830184613373565b979650505050505050565b60006080820190506139116000830187613364565b61391e6020830186613364565b61392b604083018561383f565b818103606083015261393d8184613382565b905095945050505050565b600060208201905061395d6000830184613373565b92915050565b6000602082019050818103600083015261397d81846133bb565b905092915050565b6000602082019050818103600083015261399e81613425565b9050919050565b600060208201905081810360008301526139be81613448565b9050919050565b600060208201905081810360008301526139de8161346b565b9050919050565b600060208201905081810360008301526139fe8161348e565b9050919050565b60006020820190508181036000830152613a1e816134b1565b9050919050565b60006020820190508181036000830152613a3e816134d4565b9050919050565b60006020820190508181036000830152613a5e816134f7565b9050919050565b60006020820190508181036000830152613a7e8161351a565b9050919050565b60006020820190508181036000830152613a9e8161353d565b9050919050565b60006020820190508181036000830152613abe81613560565b9050919050565b60006020820190508181036000830152613ade81613583565b9050919050565b60006020820190508181036000830152613afe816135a6565b9050919050565b60006020820190508181036000830152613b1e816135c9565b9050919050565b60006020820190508181036000830152613b3e816135ec565b9050919050565b60006020820190508181036000830152613b5e8161360f565b9050919050565b60006020820190508181036000830152613b7e81613632565b9050919050565b60006020820190508181036000830152613b9e81613655565b9050919050565b60006020820190508181036000830152613bbe81613678565b9050919050565b60006020820190508181036000830152613bde8161369b565b9050919050565b60006020820190508181036000830152613bfe816136be565b9050919050565b60006020820190508181036000830152613c1e816136e1565b9050919050565b60006020820190508181036000830152613c3e81613704565b9050919050565b60006020820190508181036000830152613c5e81613727565b9050919050565b60006020820190508181036000830152613c7e8161374a565b9050919050565b60006020820190508181036000830152613c9e8161376d565b9050919050565b60006020820190508181036000830152613cbe81613790565b9050919050565b60006020820190508181036000830152613cde816137b3565b9050919050565b60006020820190508181036000830152613cfe816137d6565b9050919050565b60006020820190508181036000830152613d1e816137f9565b9050919050565b60006020820190508181036000830152613d3e8161381c565b9050919050565b6000602082019050613d5a600083018461383f565b92915050565b6000613d6a613d7b565b9050613d768282613fdf565b919050565b6000604051905090565b600067ffffffffffffffff821115613da057613d9f614117565b5b613da982614146565b9050602081019050919050565b600067ffffffffffffffff821115613dd157613dd0614117565b5b613dda82614146565b9050602081019050919050565b600081519050919050565b600081519050919050565b600082825260208201905092915050565b600082825260208201905092915050565b600081905092915050565b6000613e3582613f61565b9150613e4083613f61565b9250827fffffffffffffffffffffffffffffffffffffffffffffffffffffffffffffffff03821115613e7557613e7461408a565b5b828201905092915050565b6000613e8b82613f61565b9150613e9683613f61565b925082613ea657613ea56140b9565b5b828204905092915050565b6000613ebc82613f61565b9150613ec783613f61565b925082821015613eda57613ed961408a565b5b828203905092915050565b6000613ef082613f41565b9050919050565b6000613f0282613f41565b9050919050565b60008115159050919050565b60007fffffffff0000000000000000000000000000000000000000000000000000000082169050919050565b600073ffffffffffffffffffffffffffffffffffffffff82169050919050565b6000819050919050565b82818337600083830152505050565b60005b83811015613f98578082015181840152602081019050613f7d565b83811115613fa7576000848401525b50505050565b60006002820490506001821680613fc557607f821691505b60208210811415613fd957613fd86140e8565b5b50919050565b613fe882614146565b810181811067ffffffffffffffff8211171561400757614006614117565b5b80604052505050565b600061401b82613f61565b91507fffffffffffffffffffffffffffffffffffffffffffffffffffffffffffffffff82141561404e5761404d61408a565b5b600182019050919050565b600061406482613f61565b915061406f83613f61565b92508261407f5761407e6140b9565b5b828206905092915050565b7f4e487b7100000000000000000000000000000000000000000000000000000000600052601160045260246000fd5b7f4e487b7100000000000000000000000000000000000000000000000000000000600052601260045260246000fd5b7f4e487b7100000000000000000000000000000000000000000000000000000000600052602260045260246000fd5b7f4e487b7100000000000000000000000000000000000000000000000000000000600052604160045260246000fd5b6000601f19601f8301169050919050565b7f455243373231456e756d657261626c653a206f776e657220696e646578206f7560008201527f74206f6620626f756e6473000000000000000000000000000000000000000000602082015250565b7f4552433732313a207472616e7366657220746f206e6f6e20455243373231526560008201527f63656976657220696d706c656d656e7465720000000000000000000000000000602082015250565b7f4f776e61626c653a206e6577206f776e657220697320746865207a65726f206160008201527f6464726573730000000000000000000000000000000000000000000000000000602082015250565b7f4552433732313a207472616e736665722066726f6d20696e636f72726563742060008201527f6f776e6572000000000000000000000000000000000000000000000000000000602082015250565b7f4552433732313a20746f6b656e20616c7265616479206d696e74656400000000600082015250565b7f506f776572757020697320616c726561647920757020666f722073616c650000600082015250565b7f4f6e6c79206f776e65722063616e206d696e742074686973204e465400000000600082015250565b7f4552433732313a207472616e7366657220746f20746865207a65726f2061646460008201527f7265737300000000000000000000000000000000000000000000000000000000602082015250565b7f4552433732313a20617070726f766520746f2063616c6c657200000000000000600082015250565b7f4f6e6c79206f776e65722063616e20726573656c6c206120706f776572757000600082015250565b7f4552433732313a206f70657261746f7220717565727920666f72206e6f6e657860008201527f697374656e7420746f6b656e0000000000000000000000000000000000000000602082015250565b7f4552433732313a20617070726f76652063616c6c6572206973206e6f74206f7760008201527f6e6572206e6f7220617070726f76656420666f7220616c6c0000000000000000602082015250565b7f506f776572757020646f6573206e6f7420657869737400000000000000000000600082015250565b7f4552433732313a2062616c616e636520717565727920666f7220746865207a6560008201527f726f206164647265737300000000000000000000000000000000000000000000602082015250565b7f4552433732313a206f776e657220717565727920666f72206e6f6e657869737460008201527f656e7420746f6b656e0000000000000000000000000000000000000000000000602082015250565b7f45524337323155524953746f726167653a2055524920736574206f66206e6f6e60008201527f6578697374656e7420746f6b656e000000000000000000000000000000000000602082015250565b7f506f77657275702077697468207468697320746f6b656e204944206e6f74206660008201527f6f756e6400000000000000000000000000000000000000000000000000000000602082015250565b7f4552433732313a206d696e7420746f20746865207a65726f2061646472657373600082015250565b7f45524337323155524953746f726167653a2055524920717565727920666f722060008201527f6e6f6e6578697374656e7420746f6b656e000000000000000000000000000000602082015250565b7f4552433732313a20617070726f76656420717565727920666f72206e6f6e657860008201527f697374656e7420746f6b656e0000000000000000000000000000000000000000602082015250565b7f4f776e61626c653a2063616c6c6572206973206e6f7420746865206f776e6572600082015250565b7f4552433732314d657461646174613a2055524920717565727920666f72206e6f60008201527f6e6578697374656e7420746f6b656e0000000000000000000000000000000000602082015250565b7f4f776e6572732063616e742062757920746865697220706f7765727570000000600082015250565b7f5072696365206d757374206265206174206c6561737420310000000000000000600082015250565b7f4552433732313a20617070726f76616c20746f2063757272656e74206f776e6560008201527f7200000000000000000000000000000000000000000000000000000000000000602082015250565b7f456e7465722074686520636f7272656374207072696365000000000000000000600082015250565b7f506f776572757020616c726561647920736f6c64000000000000000000000000600082015250565b7f4552433732313a207472616e736665722063616c6c6572206973206e6f74206f60008201527f776e6572206e6f7220617070726f766564000000000000000000000000000000602082015250565b7f455243373231456e756d657261626c653a20676c6f62616c20696e646578206f60008201527f7574206f6620626f756e64730000000000000000000000000000000000000000602082015250565b7f506f7765727570206e6f7420617661696c61626c650000000000000000000000600082015250565b6148b481613ee5565b81146148bf57600080fd5b50565b6148cb81613f09565b81146148d657600080fd5b50565b6148e281613f15565b81146148ed57600080fd5b50565b6148f981613f61565b811461490457600080fd5b5056fea2646970667358221220a33bbeb1fa40905fc259ad9f4f2ea0a6a2fcf1300800d635529cb6f7b901bdd864736f6c63430008040033",
  "linkReferences": {},
  "deployedLinkReferences": {}
}